:1000000075811090FFF17400F07432F074DFF075B8
:100010003010753110753210753310753410753518
:100020001012003B1200CCE560F5F0C4540F53F001
:100030000F85F030F53112019880E6D2B3120154E9
:1000400012019820100302003D12019874CC120096
:100050009074441200900012019812015420100371
:1000600002005A12019874CC12009074BE120090D3
:100070001200A8227A08C3D2B30000C2B300000065
:10008000D2B37B03DBFEA2B37B0BDBFE13DAE722EA
:100090007A08C3C2B37B03DBFE1392B37B0BDBFE98
:1000A000D2B300DAEED2B3227C0279417A08C3D20D
:1000B000B30000C2B3000000D2B37B03DBFEA2B3E7
:1000C0007B16DBFE13DAE7F719DCE12274F0554109
:1000D000C4F560E54130E3020560E5405407C425FE
:1000E00060F5601200E7229000F0E56093F5602271
:1000F0000001020304050607080910111213141564
:1001000016171819202122232425262728293031C3
:100110003233343536373839404142434445464717
:10012000484950515253545556575859606162636B
:1001300064656667686970717273747576777879CB
:100140008081828384858687888990919293949513
:1001500096979899D2B300C2B378FAD8FED2B37802
:1001600030D8FE30B30302016ED210020173C21008
:10017000020177786BD8FED2B3222010012274CC12
:10018000120090744E1200907400120090740012CD
:100190000090747F12009022793575388590FFF1B8
:1001A000E538F09001B3E79390FFF0F0153819B9F6
:1001B0002FEB220C9F4A0B9929288F080988386C4D
:0501C0001A68E8FFC011
:00000001FF
